S01F0000626F6F746C6F616465722D756172742D786D6F64656D5F322E73333779
S113000000800020A10000009D000000810100008C
S11300109D0000009D0000009D0000009D00000068
S11300209D0000009D000000202900009D000000AC
S11300309D000000542900009D0000009D00000068
S113004010B5054C237833B9044B13B1044800E0D0
S113005000BF0123237010BD180100200000000020
S1130060602B000008B5034B1BB10349034800E0B3
S113007000BF08BD000000001C010020602B000030
S1130080044B054A9A60D3F8882042F47002C3F8FE
S11300908820704700ED00E000000000FEE700004B
S11300A008B5FFF7EDFF00F0E3F80A4A0A4B0B49E5
S11300B08B4206D300210A4B0A4A934206D300F02E
S11300C063F852F8040F43F8040BF1E743F8041BF8
S11300D0F3E700BF602B000000010020180100209E
S11300E018010020F0030020002070470020704712
S11300F030B51C4B87B001AA03F1100514461868EB
S11301005968083303C4AB422246F7D11B782370E5
S1130110154B1B6F03F00703032B1ED0134A936880
S1130120C3F30443102B1AD806A90B4413F8140C78
S11301300F4B104943438B4206D191680122C1F30E
S113014001618A40B3FBF2F3074A106FC0F3013038
S11301500130B3FBF0F007B030BD074BF4E7074BB9
S1130160F2E700BF0C2900000080004000000140BD
S113017040420F0000093D0000F04902C0EA21019D
S11301804FF4017001F034BD13B501A800F04AFB2F
S11301902F4B9B6DDB0318D42E4A136823F4FF0303
S11301A023F4FE4343F4BC1343F4A063136052F8F6
S11301B0043C23F4704343F4404342F8043C52F8B3
S11301C0043C43F4E06342F8043C9DF80530012B01
S11301D00FD19DF8043063B94FF000531B681E4BD8
S11301E01B681E4B1B681E4B1B681E4B1B681E4B5B
S11301F01B681E4AD2F8803043F00303C2F88030F3
S1130200FFF772FF01F0EDFC01F052F801F052F833
S113021018B14FF4017001F0EBFC01F077F80446DB
S113022001F016FA1CB140F203739C4203D140F270
S1130230012001F0DDFCA4F20574012C94BF40F20E
S113024003204FF4017001F0D3FC002002B010BD74
S113025000C0004034C00040004000200080002066
S113026000C0002000000120004001200080004068
S113027008B54FF04023D3F894305B060FD400F058
S113028033FB80F00100C0B244F204031B68013365
S113029014D1BDE808404FF4027001F09BBC01F09A
S11302A0BFFCA0F2022080B20728E8D8012303FA99
S11302B000F010F0C90FE2D00020E5E790B14FF450
S11302C0804001F067FB0028E3D04FF48043064AE6
S11302D093601846016881F3088881F309884068AF
S11302E08746FEE708BD00BF00ED00E00020704730
S11302F049BA89B24840C0F30311414008B280EAC8
S1130300013000B2C3B280EA431080B2704738B5FE
S1130310044645181046AC4200D138BD014614F8D5
S1130320010BFFF7E5FFF6E730B501240025074B85
S113033001445C609D601A611A46DC60884201D108
S1130340586A30BD10F8014B1462F7E7008008408A
S1130350F8B504461D4616460F4600F0FCFADDE9E2
S11303600612204600F0FDFA002384F83870636218
S113037032682B0CC4F839207268C4F83D20B26886
S113038084F845302B0AC4F8412084F8463084F8B8
S11303904750F8BD30B51D4685B000F12803CDE9BE
S11303A00112009300F1240200F13803294600F001
S11303B05DFB05B030BD00002DE9F04798B08846DC
S11303C017469946209E824600285DD000295BD0BE
S11303D0002A59D0002B55D02D4D2E4B002E08BF8E
S11303E01D461C22002111A802F07CFA2A4B18ACED
S11303F044F8203D2946204600F0C7F92021204634
S113040000F0C3F90122254BCDF804900292039326
S1130410049605920693B9F1000F08D03EB101A9E4
S1130420204600F09EF904A9204600F09AF901261E
S11304301A4D07A92046CDF81CA00896099500F08E
S113044090F90AA92046CDF828800B960C950D97B3
S11304500E960F9500F085F90DA9204600F081F95C
S1130460204600F09BF94FF098435A6CD202FCD519
S11304705B6D40F2046013F4702F08BF002018B0C5
S1130480BDE8F087034DACE740F20160F7E700BF39
S11304901F2400801F24FC8400000106200000208B
S11304A010B5044600F0E8FC2046BDE810400021E9
S11304B000F00CBD00F014BD014600F013BD0000B7
S11304C01FB5FFF715FE4FF47A23B0FBF3F00A4B88
S11304D00E2218600021684602F004FA01238DF808
S11304E0003040F2FF3369460448ADF8023000F0B2
S11304F0AEF905B05DF804FB38010020008004402B
S11305000D4A0E4B10B5546A1B68A4B213FB00408D
S113051080B2A0422CBF00240124094B1880094B4F
S11305201C70134611B15A6A8242FCD1012242F274
S113053014015A509A6110BD008004403801002013
S113054034010020360100200A4B1A780A4B22B1EC
S1130550586910F0010003D170475A69D20707D4D3
S1130560586A064B1B88984234BF0020012070470C
S1130570012070473601002000800440340100202F
S1130580F0B54AB1012530241D4E8D4004FB0064B2
S11305900BB341F21006A55130244443072904F15A
S11305A0804404F5703419D80F2765688E00B7406D
S11305B025EA070502FA06F63543656052B90122B9
S11305C002FA01F130220E4C02FB0040A3B141F2C9
S11305D01003C150F0BD42F21006DCE70F2701F111
S11305E08045083DE668AD00AF4026EA070602FAFA
S11305F005F53543E560E1E742F21003E9E700BFA2
S113060000C0034070B50D4C0D4E0E4DF36913EA56
S1130610050208D00C4A1A40002A14BF6FF00100EA
S11306204FF0FF3070BD03408B4204D0013CEDD14C
S11306306FF00200F6E71046F4E700BF80969800DA
S113064000000340060001000200010070B5134CD5
S11306506061E06943071DD40E1D0968151FA1617F
S11306605DB90423294623612120FFF7CBFF58B944
S1130670BDE870402120FFF7C5BF08210846FFF7F9
S1130680C1FF10B10423236170BD56F8043B043D3F
S1130690A361E5E74FF0FF30F6E700BF0000034039
S11306A038B541F671330E4C0122E569E36341F23A
S11306B00C03E2500223606100212361212005F430
S11306C08035FFF79FFF18B901462120FFF79AFFF5
S11306D042F20C030122E2500DB10023E36338BD62
S11306E0000003402DE9F843154641F67132164BDC
S11306F08846DF690121DA6341F20C020646DFF81D
S11307004C9007F48037995055B9284642F20C02B0
S113071001210D4B99500FB10022DA63BDE8F88333
S113072006F5005404EA0904A41BAC4228BF2C4675
S1130730414622463046FFF789FF0028E6D1264489
S1130740A0442D1BE0E700BF0000034000E0FFFFD2
S11307504FF098435A6CD202FCD5586D00F47020C7
S11307607047436813B9416070475B685A68012A4F
S1130770FBD159607047836813B9816070475B6827
S11307805A68012AFBD159607047C369032B9FBF84
S113079000EB83020133D160C3617047C369042B4A
S11307A015D84FF09842116CC902FCD504339B0054
S11307B013650168103B116041680C30116050F8FA
S11307C0041C034411604FF09842984200D17047D2
S11307D050F8041B1160F8E7F0B515460F4C104AA9
S11307E08DB0002B08BF144607461C220E4605A8F0
S11307F0002102F077F8012301A904A83C4345F045
S113080000550196049402930395FFF7B4FF04A8DE
S1130810FFF7C4FFFFF79CFF0DB0F0BD01000AFF16
S1130820010008FF054B5B69C3F38512827003F076
S11308303F021B0B42700370704700BF00C00740AB
S1130840036BDA0702D503695B06F9D4704710B568
S11308500446FFF7F5FF012242F23003C2500B7940
S113086048881B0243EA8043487A034348780028B7
S113087014BF402000200343887A002814BF80203E
S113088000200343C87A002814BF2020002003431B
S1130890087B002814BF102000200343487B002855
S11308A014BF0820002003438879002814BF4FF4A4
S11308B0803000200343636041F23003E2500A7841
S11308C00AB90223E3600023C87963620B7A497989
S11308D043EA8003002914BF102100210B43A360C5
S11308E00AB10123E36010BD13B5002101230422E2
S11308F00846FFF745FE00230093009B632B18DD99
S11309000021012302220846FFF73AFE0023019347
S1130910019BB3F5FA7F0FDB0022094B10461C68DC
S113092011460123FFF72CFEE04300F0010002B062
S113093010BD009B0133DFE7019B0133E7E700BFF4
S113094014C003404FF098435A6CD202FCD5586D42
S113095000F47020704718B12422002101F0C2BFB6
S1130960704770B50E4615460446A0B199B12422CD
S1130970002101F0B7FF25F04003802B02D0B5F52C
S1130980807F0BD12046EA0840F8045B314601F031
S11309909EFF002070BD6FF02100FBE76FF01F0089
S11309A0F8E700002DE9F041884692B016461F464C
S11309B0054600284ED0002A4CD0002B4AD00468AB
S11309C024F04003802B02D0B4F5807F45D11C2253
S11309D000210BA801F086FF214B22490122B8F126
S11309E0010F18BF19462B1D0193E4081E4B0A91F1
S11309F044F0005401A90AA80292039404960592B3
S1130A000693079708920993FFF7ABFE04A90AA877
S1130A10FFF7A7FE07A90AA8FFF7ADFE29680AA8F1
S1130A20C908FFF7B2FE10210AA8FFF7AEFE00F0D6
S1130A30EBF8044650B90AA8FFF7B0FEFFF782FFAF
S1130A40054600F0E3F8002D18BF2C46204612B0EE
S1130A50BDE8F0816FF02104F8E76FF01F04F5E7BB
S1130A600001010400010004100000202DE9F04FF2
S1130A709BB007468A469846DDF8949016460AB31A
S1130A801568002F00F0B480B9F1000F00F0B080B9
S1130A90269B002B00F0AC80B8F1000F00F0A8807A
S1130AA0249B002B00F0A4803B6823F04002802AA2
S1130AB003D0B3F5807F40F09E8009EB0A03002445
S1130AC000930DE01546DCE795B1249A19F804303B
S1130AD0525D01355340269A05F00F051355013434
S1130AE05445F1D3002E00F089803560002060E089
S1130AF0AAEB040BBBF10F0F51D91C22294613A8F2
S1130B0001F0F0FE3E4B3A6812933B1D0393012320
S1130B10D20842F00052049305923A4A2699CDF83D
S1130B2018802BF00F0B07930892CDF824800A93BA
S1130B300B9209EB04020C9221444BF000520D93EA
S1130B4012A80E920F9103A910931192FFF709FEB8
S1130B5006A912A8FFF705FE0CA912A8FFF701FECB
S1130B600FA912A8FFF707FE09A912A8FFF703FEB1
S1130B70396812A8C908FFF708FE594612A8FFF7FA
S1130B8004FE00F041F8A0B912A8FFF707FEFFF732
S1130B90D9FE019000F03AF8019B5C4443B9269BCE
S1130BA009EB040B1C44009B5B4505D1544697E7B5
S1130BB018461BB0BDE8F08F7DB94246249B012145
S1130BC03846FFF7EFFE08F1100212F8013D013339
S1130BD0DBB213700BB99045F7D1249A1BF8013B93
S1130BE0525D0135534004F8013B05F00F05DAE787
S1130BF06FF02100DDE76FF01F00DAE73046D8E739
S1130C0003030004100000200020704700207047F8
S1130C102DE9F04192B005460F46904600211C2272
S1130C200BA81E46189C01F05DFE01214FF00052F6
S1130C308D42CDF8048002910392049705910692A7
S1130C400796089109923BD003D3022D4BD0274C31
S1130C5032E0274B12A8A40140F8203D2146FFF7BB
S1130C6094FD039B1C430394069B43F014030693D7
S1130C70099B43F0140304A90AA80993FFF771FD23
S1130C8001A90AA8FFF76DFD07A90AA8FFF773FDDC
S1130C90FFF7BAFF044678B90AA8FFF77FFD4FF0C3
S1130CA098435A6CD202FCD55D6DFFF7AFFF114B30
S1130CB015F4702F18BF1C46204612B0BDE8F08111
S1130CC00D4B12A8A40140F8203D2146FFF75DFD1D
S1130CD0039B1C430394069B43F020030693099B48
S1130CE043F02003C7E712A8044BEBE780AFFFFFF4
S1130CF00002010380ADFFFF0003010300040103B0
S1130D002DE9F34702281446DDE90A9280460E468F
S1130D101F464ED81CB9002002B0BDE8F087136806
S1130D203F2B42D8516809B1002F3ED1B8F1010FD1
S1130D303DD0224D2249B8F1020F18BF0D4603F0F1
S1130D403F00E318136022BF53680133536090B32C
S1130D50C0F1400A544522D331465246484401F07A
S1130D60B6FD01234A46009329463B464046A4EB80
S1130D700A04FFF74DFF3F2C56440DD93D46A30905
S1130D80009332463B4629464046FFF741FF24F094
S1130D903F031E4404F03F04002CBCD00020224634
S1130DA03146484401F093FDB5E73D46C7E7054D9C
S1130DB0C5E70548B0E73F2CF1D9E0E7D4290000A6
S1130DC094290000B429000080AFFFFF2DE9F04111
S1130DD0012886B004460E4690461D4604D045D3ED
S1130DE0022841D022483CE01C272A68CDE900852E
S1130DF0D3008DF80F3053098DF80E30530B8DF856
S1130E000D30530D8DF80C306B682046D90001EB82
S1130E1052718DF80B1002F03F025909372A8DF8F0
S1130E200A104FEA53314FEA535394BFC2F13802C8
S1130E30C2F178028DF809108DF808300D49334657
S1130E40FFF75EFF082233460DEB0201CDE9008572
S1130E502046FFF755FF3A4631460C9801F037FD1E
S1130E60002006B0BDE8F0812027BEE71427BCE7C8
S1130E7080AFFFFFF429000018B16C22002101F0BB
S1130E8031BD704707B590F868300190002B00F130
S1130E902803009300F1080314BF01200220FFF788
S1130EA02FFF03B05DF804FB07B590F868200346F4
S1130EB0002A009100F1280200F1080114BF01206A
S1130EC00220FFF783FF03B05DF804FB002399427F
S1130ED0D4BF00210121C0E9003380F868107047B5
S1130EE0FFF7D0BFFFF7E0BF002070470020704736
S1130EF00020704700207047002070470020704792
S1130F0028231B68186970472823186870474FF412
S1130F10004070470120704700B591B00023402283
S1130F2069464FF48070FFF757FCB0F5A02F0348D3
S1130F3018BF002011B05DF804FB00BF4CE30B00A8
S1130F4000B591B00023402269464FF48070FFF74A
S1130F5043FCB0F5A02F034818BF002011B05DF882
S1130F6004FB00BF6CE30B000048704786E20B00F3
S1130F70F8B5012741F20403374D0024EF5040F641
S1130F80AA6342F248026B6141F20503334E3449CD
S1130F90AC60EC65EB602C61EC61EC64A950C6F8C4
S1130FA0AC45C6F8C445C6F8BC45C6F8B445C6F851
S1130FB0B845EB60AB68AB60FFF79AF8294B2A4A57
S1130FC01B6F0521C3F380233B44B0FBF3F34FF4C1
S1130FD0E11003F5E1435B01B3FBF0F3203B02EACC
S1130FE0C303EB6104223B462046FFF7C9FA3B46A4
S1130FF03A4606212046FFF7C3FA1423C6F8AC3557
S11310004FF4A023C6F8C4354FF4C023C6F8BC354A
S113101005234FF0F0524FF480216B61134B5F6056
S11310209A60134A5C629C631C645C65116011499C
S11310301C66DC651967104951600321A2F5FE5254
S11310400C3AC3F89040C3F88C40116041F210028E
S113105002219F649950F8BD0080054000C0034000
S1131060FFFF010000800040F8FF7F000000044003
S113107000400440342A000002000400094B586B6D
S113108010F0020007D002229A6203F500533433B1
S113109001201A607047DB6A9B07FBD4024B0222D3
S11310A0F6E700BF00000440342004407F2938B52F
S11310B00546144624D8FFF7E1FFA8B941F20620FB
S11310C038BDE85C985401338B42FAD102220E49B0
S11310D0013B088863F30E100C4B0880C3F8A01082
S11310E09A6424B90020EBE70023094AECE7FFF7F0
S11310F0C5FF0028FBD0074A93699B06FCD5F1E79E
S113110041F20310DCE700BF0001002000000440AE
S11311104003002000800540014608B5FFF7AEFFFC
S11311200028FBD0054B1A4698694006FCD5D963C4
S113113093699B06FCD5002008BD00BF00800540D4
S11311400E4BD86E40F2011398420FD040F20223A6
S113115098420DD00A4BC01A0A4B1B6883420AD02E
S11311602ABFC3F50073C01AC01870470020F3E704
S11311704FF48070F0E70020704700BF0000044087
S11311803C0100203C0300202DE9F843089F04465D
S11311900D461646FBB9FFF7D3FFA84228BF2846E1
S11311A0224604EB000C4FF0010800244FF0020922
S11311B01B49DFF874E00B681A4F62451DD104B176
S11311C00B6006B1306041F20423A84234BF1846D4
S11311D00020BDE8F8832FB1FFF772F900213846EB
S11311E0FFF78EF9FFF7ACFFA842D4D2002FF9D055
S11311F0FFF7AAF90028F5D0CDE71EF80340013324
S1131200B3F5007F02F8014B04D10023C7F8009026
S11312100124D2E7B3F5807F08BFC7F80080F7E761
S11312203C030020101004403C010020012307B5BA
S1131230002200911946FFF7A7FF03B05DF804FBF5
S113124010B102220A4B9A6279B101220020084BA4
S113125008499A620A6008491967084908609A644B
S1131260022203F5805310331A600020704700BF38
S11312700000044034200440342A00003C030020D1
S113128007B54FF47A710DF10700FFF7CFFF50B99E
S11312909DF80730313BDBB2022B01D8034AD05C06
S11312A003B05DF804FB0120FAE700BF742A0000D4
S11312B0FFF75EBE282310B51B6892B09C684522D8
S11312C01149684601F003FBC4F30363092B8CBF87
S11312D0373330338DF81430C4F30343092B04F04F
S11312E00F048CBF37333033092C8CBF3734303480
S11312F00122452168468DF816308DF81840FFF715
S1131300D5FE002012B010BD8A2A00002DE9F04756
S11313100024ADF51A7D8DF80B403C27FFF7D0F87B
S11313200125B54EDFF8E882DFF8E892062DFDD8F6
S1131330DFE815F00B000F001400350055004D01D7
S1131340C3000425F2E70546F0E7FFF7B3FF0125E4
S1131350ECE7FFF795FF3C270546E7E7012211215B
S1131360A648FFF7A3FE202316AA04A953A800F059
S1131370A9FD2C220021A04801F0B4FAFF23012189
S113138005207370FFF7BCF8FFF7DAFE18B10121EE
S11313900020FFF755FF00F05DF90325C6E7432061
S11313A0FFF7BAFE00214FF47A70FFF7A9F8FFF7B0
S11313B0C7FE18B9FFF7C8F80028F8D0FFF7C0FE39
S11313C00028BED1013FB1D11820FFF7A5FE182097
S11313D0FFF7A2FE1820FFF79FFE0025A6E70021D5
S11313E085220DF1C50001F07DFA002140F6B830E8
S11313F0FFF786F8FFF7A4FE78B34FF47A730093EF
S1131400012303AA19460DF1C500FFF7BDFE9DF89F
S1131410C530012B0DD140F6B832842100920DF174
S1131420C60003AAFFF7B0FE039B0446842B18D121
S1131430C8B90DF10B010DF1C50000F015F940F626
S113144007139842044614D1B3780BB1F37813B957
S113145018238DF80B3006251DE0FFF775F80028DA
S1131460C8D040F2047415208DF80B00FFF754FE29
S11314705CE780B99DF8C530012B0CD1604B32AAD2
S113148000933146802353A800F062FD044610B156
S113149018238DF80B309DF80BA0BAF1180F5046A5
S11314A008BF0625FFF738FEBAF1180F7FF43EAFE8
S11314B05046FFF731FE5046D8E701210020FFF7E0
S11314C0BFFE01210A20FFF71BF89DF80B30012213
S11314D0062B08D140F607139C4204D11B2149482E
S11314E0FFF7E4FD79E71A214846FFF7DFFDA4F58D
S11314F01063B3F5E06F39BF182143481021434806
S11315000122FFF7D3FD41F201039C4249D02FDCB5
S113151040F603139C4246D01FDC40F601139C4264
S113152047D040F602139C4245D09DF80B000009B9
S113153009288CBF37303030FFF7EEFD9DF80B00E3
S113154000F00F0009288CBF37303030FFF7E4FD7E
S11315500D20FFF7E1FD0A203DE740F605139C420C
S11315602BD024DB40F606139C42DED127231BE05C
S113157041F207039C4214D00ADC41F205039C4269
S11315801FD022DC41F204039C42CED150230BE055
S113159041F209039C4212D015DB41F20A039C423A
S11315A0C3D14F2300E021238DF80B30BDE7222364
S11315B0FAE72323F8E72423F6E72523F4E7412376
S11315C0F2E74323F0E74423EEE74523ECE7B3785F
S11315D0002B37D0F378002B34D033785A071BD53F
S11315E0B06A00F063FA00283FF4ADAEFFF78FFC59
S11315F000F086FAF1E600BFC0030020252B0000AE
S1131600E02A00000A2B0000362B0000CF2A00003D
S1131610772A0000F02A00009B070ED528231B68B8
S113162072689B689A4204D9FFF771FC716A00F0F2
S1131630F7F901221321404652E740F2012000F05D
S1131640D7FAF6E740F2032000F0D2FAC5E600BF6D
S1131650704700000023024A1370024A1370704757
S1131660EC030020ED03002038B503780546042B75
S11316700C4650D008D8012B0AD0032B50D1182384
S113168040F6081023700DE0182BF8D0432BF5E733
S1131690264B42781978D9B9012A04D0152340F68B
S11316A00410237038BD1A70AB781A44FF2AF5D1A0
S11316B000228021E81CFEF72AFE95F88320C0F35F
S11316C00F239A4216D0152340F602102370E9E73F
S11316D0174B1B78934204D1062340F6061023705F
S11316E0E0E70133DBB29342DED0152340F6051068
S11316F02370D7E795F88430C0B2834204D0152311
S113170040F601102370CDE76A78094B00201A7067
S113171006232370C6E7062340F607100B70C1E7C3
S1131720182340F603102370BCE700BFED0300202C
S1131730EC0300204FF098435A6CD202FCD5586D4C
S113174000F4702070470000F0B585B06C46024686
S113175026460D4B03F110072546186859680833CF
S113176003C5BB422C46F7D104AB501E13F8011D30
S113177010F8012F914204D1B342F7D1012005B0F2
S1131780F0BD0020FBE700BF4E2B0000C0F30C03AC
S11317902DE9F04105460F4616460BB900F055FAFF
S11317A005F5005424F4FF5424F01F0405EB060847
S11317B0A04506D8324639462846BDE8F04100F037
S11317C04BBA204600F041FA04F50054F0E738B56E
S11317D004460D46FFF7B8FF40B16369012B08D1F9
S11317E0237C012B05D8A3692B6038BD2C60012014
S11317F0FBE70020F9E72DE9F0479EB0446B06466D
S1131800FFF782FB82462046FFF79EFF18B90020AF
S11318101EB0BDE8F087237C012BF8D83427D7F815
S113182000804046FFF790FF0028F0D0B8F57F5FB6
S1131830EDD8FFF761FB002835D14FF0000902A96C
S11318402046FFF7C4FF0028E1D0029BDAF81020FD
S11318509A42DCD8B342DAD3B3F5801FD7D803A8B1
S1131860FEF71EFE029A3146921B03A8FEF722FEE3
S113187003A8FEF721FE029DFFF73EFB2035029EE2
S1131880002849D0B9F1000F43D0A36B03F124021F
S1131890009204332A46314603A8FEF78DFDB0FAC0
S11318A080F04009B4E7236913F0FF0F2CD01B0A22
S11318B02AD0A56B45B33F683846FFF745FF8146FC
S11318C00028A4D0B7F57F5FA1D8BB6B5A6C6B6CB2
S11318D09A429CD803A8FEF7E3FD4822294603A8B0
S11318E0FEF7E8FD03A8FEF7E7FDBB6B05F1480131
S11318F003F124020092043305F1680203A8FEF701
S11319005BFD00289BD082E7FFF7F8FA002894D00B
S11319107DE7D8F83830B9E7FFF7FEFA0446FFF759
S11319200FFB23460090B5E770B504460E461546F6
S1131930FFF7EAFA0369A3420AD8426963199A4293
S113194006D32A4631462046BDE87040FFF71EBF45
S113195070BD2DE9F041154607468846FFF7D4FAD5
S11319600646FFF7D4FAC4196319B3F5801F0FD8DC
S11319703FB9FFF7CCFA7369834202D9306900F0AA
S113198064F92A4641462046BDE8F041FFF7FEBE11
S1131990BDE8F081F8B5D0E9006706F16046044679
S11319A0456BFFF7B1FAB6F5C03F01D90020F8BD89
S11319B00369BB42FAD8B7F5801FF7D84033AB426E
S11319C002D8B5F5801F05D9FEF790FC80F0010020
S11319D0C0B2ECE7FEF78AFC20B12046BDE8F8402F
S11319E0FFF709BF2846FFF7AFFEA8B12B7C012BF8
S11319F0DCD86B69002BDAD0022BEED1AB69C4F1D1
S1131A00040119444FF0FF322046FEF78DFC034BCE
S1131A10C31A58425841CAE70120C8E7E320BBDE95
S1131A2070B54FF0FF3290B006460D46FEF77CFCD1
S1131A301B4B984231D11C22002101A800F052FF17
S1131A40184B10AC44F8403D20463146FEF79DFE4D
S1131A5029462046FEF799FE2046FEF79FFEFFF733
S1131A6069FE0446C8B940F2022000F0B3F81C2213
S1131A70214609A800F036FF0B4B10AC44F8203D7A
S1131A8031462046FEF781FE29462046FEF77DFEBC
S1131A902046FEF783FEFFF74DFE002010B070BD18
S1131AA0E320BBDE01000543010006434FF0FF3392
S1131AB010B58CB01C220021044605A8009300F048
S1131AC011FF0D4BCDF804D00493012302930B4B6B
S1131AD001A904A80393FEF74EFE04A8FEF75EFED8
S1131AE0FFF728FE30B90098A0422CBF0020012047
S1131AF00CB010BD0020FBE70000084304000020E8
S1131B0030B5054691B01C22002101A800F0EAFE80
S1131B10134B10AC44F8403D29462046FEF735FEF1
S1131B202046FEF73BFEFFF705FE0446A8B940F247
S1131B30022000F04FF81C22214609A800F0D2FE32
S1131B40084B10AC44F8203D29462046FEF71DFE04
S1131B502046FEF723FEFFF7EDFD002011B030BD57
S1131B600000024300000343B1F5037F10B50446AF
S1131B7010D34FF40372002100F0B4FE002304F5E7
S1131B80C872637004F5A47104F12C00BDE8104020
S1131B9000F098B940F2052010BD13B50446009139
S1131BA001462C3000F0D4F9C4F8080218B141F20F
S1131BB00703984209D1A3784BB140F2032040F2C5
S1131BC00223E278002A08BF184602B010BD40F292
S1131BD00120FAE74FF000534FF20F0218805A80A9
S1131BE070474FF000534CF23C325A80704700006B
S1131BF04FF000534FF20F0218805A80BFF34F8FFB
S1131C000549064BCA6802F4E0621343CB60BFF394
S1131C104F8F00BFFDE700BF00ED00E00400FA05B0
S1131C204FF000534FF20F015A888A4201D11888AD
S1131C3070473AB91B8840F20220012B18BF4FF4B9
S1131C40007070474FF40070704708B5FEF728FD28
S1131C50B0FA80F0400908BD10B540EA0204A407B8
S1131C6006D13AB1FEF73EFDB0FA80F0400910BD4E
S1131C700020FCE70120FAE770B5D1E90152AA423D
S1131C8005D290F840302B449B1A402B10D90020E9
S1131C9012E00A6890F84040D65C90F84120013385
S1131CA0224402F03F02013486548B6080F84040A5
S1131CB08B689D42EDD8012070BD2DE9F84317468D
S1131CC0D1E90125521B90F8405004462A4493421E
S1131CD00E469DF820909DF8248057D9FFF7CCFF3D
S1131CE000285DD1152341F2020084F84630BDE896
S1131CF0F88394F84120A25C7A5594F84120013588
S1131D00013202F03F0284F8412094F84020013A65
S1131D1084F8402094F8402012B1AB42E9D11D462A
S1131D20D6E901128A4201D2AB4231D8AB42D9D1B1
S1131D30D4F8882029463846FEF7F6FAC4F8880015
S1131D40B9F1000F04D02A463946E06CFEF7B2FB25
S1131D50B8F1000F08D094F843302BB12B463A4623
S1131D603946A06CFEF716FB94F8433043B1E36D9B
S1131D70A26D2B449342E36524BF002384F84330CF
S1131D80636D41F203001D446565B0E70025C1E7BA
S1131D9031688A5C7A55B26801350132B260BFE7B6
S1131DA00020A4E77FB50023CDE9003308231546BE
S1131DB00DEB03020446FFF780FF41F20303984250
S1131DC0064626D194F8433063B10822E06C0DEB4B
S1131DD00201FEF76FFB08230DEB03021146A06C12
S1131DE0FEF7D8FA039A029B6A6094F843202B60AA
S1131DF05AB9094A934208D0084A934205D00822A6
S1131E00E06C0DEB0201FEF755FB6B6823650023C4
S1131E106365304604B070BDF70A0AF7FC0404FC9D
S1131E202DE9F843044658680D4616461F46002817
S1131E3043D08B0743D1FFF763F8216E00F1040C04
S1131E4006EB0109CC451DD800F11C02914219D2C0
S1131E508C45634638BF0B46914594BFC3EB0909D3
S1131E60C3EB0209591AA3EB0C0005EB0108683017
S1131E704A464146204400F02AFD4A46FF21404696
S1131E8000F030FDFFF743F8226E031D93420AD39E
S1131E90B1180830814206D39B1AEA58C4F880204E
S1131EA04FF0FF32EA50D7E900383246206E294617
S1131EB0C0470020236E1E442666BDE8F88341F225
S1131EC00200FAE72DE9F04100254FF0FF37044600
S1131ED08846164603F0200380F8423080F84650C6
S1131EE0A0F8405080F8435080F8455080F84450A2
S1131EF0C0F88870C0E918551822FF21683000F036
S1131F00F1FCC4F88070C4F88470C4E91286882295
S1131F10294604F1900000F0E5FC84F81851FEF71E
S1131F20E9FF30B1B8F1000F03D141F20B00BDE875
S1131F30F081FEF7DDFF30B1002EF6D0E06CFEF745
S1131F40AFFA0020F3E7002EF8D13046EFE70000A7
S1131F502DE9F04FB7B0CDE90823342203930023D1
S1131F60D2F800A00446BAF57F5F8846409E0A93E3
S1131F7000F2D98099460A9A039B9A425BD294F85C
S1131F804630152BF8D8DFE813F08B00A00084004E
S1131F90CB0058003F0036003C023F0036023F00B1
S1131FA005023F0036020D034F04160076037A0340
S1131FB00C04A2024F040027636D0F2B6ED8012579
S1131FC01023019700950BAA08A92046FFF775FE78
S1131FD041F20303984240F0A880D4F848B0FEF7D9
S1131FE0C3FF80230CAACDE9000302212B465846E7
S1131FF0FEF7AEF9E0E70125D4E914329A42C0F0C5
S11320005F8184F84650B6E70DF12C0BD4E91452E5
S1132010AA420A9942D2099BAD1A94F840205B1A4D
S1132020032D134440F2F181032B00F2158208A919
S11320302046FFF721FE002077E00125636D072B82
S113204099D80823CDE900550BAA08A92046FFF723
S113205034FE41F20303984267D198F8003043F00C
S1132060020388F800300B9BC8F80430236D083B4A
S1132070C8F824300C9B0593002B51D1052284F819
S1132080462094F84520636642F0010284F8452016
S1132090D4E70025636D072B40F2DB80012311E0B8
S11320A006AA08A92046FFF77DFE41F203039842E1
S11320B03BD1079B069A236500236365B74B9A427D
S11320C02ED1022384F8463055E706AA08A92046F3
S11320D0FFF768FE41F20303984226D194F84420A6
S11320E0069B22B1AE4A93421AD10E23EAE794F832
S11320F04220D50756D594F84320002A40F0978310
S1132100A84A934248D01BD8A74A934200F095802E
S11321100ED8A24A934203D002F1B64293421AD196
S1132120152384F8463041F2010037B0BDE8F08F42
S11321309E4A9342F4D09E4A9342F1D09D4AEDE7E1
S11321409D4A93421ED00FD89C4A934200F091833B
S11321509B4A934218D0152306A884F84630FEF70C
S1132160C3FE0028DFD11AE0964A9342D8D0964A9B
S11321709342D5D08A4A9342EDD1FEF7B9FE0028A6
S1132180B3D0CDE710239DE7112384F84630236DA7
S1132190A3650023E365EEE6152384F8463041F297
S11321A00800C2E7824A934233D000F254837E4A45
S11321B093423DD000F2458302F1D74202F5D81292
S11321C002F6F832934220D006A8FEF78DFEB0B393
S11321D01423069884F84630C4F88C00FEF786FE73
S11321E094F84230814698067FF5C5AEB9F1000FE8
S11321F03FF4C1AED9F80430002B3FF4BCAE204606
S1132200984700283FF4B7AE8DE70B235AE706231F
S113221058E7072356E70D2354E7FEF769FE002825
S11322207FF47EAF94F84330002B3FF45EAF77E742
S113223094F84330002B7FF473AF122342E7152345
S113224084F8463094F84330002BA8D041F20400BF
S11322506BE70123019500930BAA082308A92046E4
S1132260FFF72BFD41F2030398427FF45EAF0B9B13
S113227003F07F43B3F1407F05D0152341F20900F9
S113228084F8463051E70C9BD90705930ED594F892
S1132290423043F0010384F84230FEF729FE00285F
S11322A03FF4F8AE059BDA0504D5F3E6FEF722FE0B
S11322B00028F2D0152341F20A0084F8463034E7AE
S11322C0CDE900550BAA08A92046FFF7F6FC41F218
S11322D0030398427FF429AF08F1080C63460BAF5F
S11322E00DF1440E3A4603CA724518605960174608
S11322F003F10803F6D11068186098F800306046BE
S113230043F0010388F80030FEF704FE00287FF450
S113231073AE152341F20C0084F8463005E701231F
S11323200DAACDE9003308A908232046FFF7C5FC10
S113233041F2030398427FF4F8AE98F8003043F07A
S1132340040388F800300E9BC8F8283098F8013050
S11323505B071CD500201D4B60660B93236DC4F8EE
S1132360843094F8453043F0020384F84530F5682E
S11323706DB1336804220BA9A8470822606E336844
S1132380F5680DA91044A847636E103363660C23E7
S113239084F84630636D072BC1D9ECE5EB17A6032F
S11323A0FC0404FCF70909F7F30B0BF3F50909F531
S11323B0F60808F6F40A0AF4FA0606FAF70A0AF71F
S11323C0F90707F9FD0303FDFE0101FEEB17A65E05
S11323D00423CDE900550BAA08A92046FFF76DFC9C
S11323E041F2030398427FF4A0AE226D0B9B042AB2
S11323F0059301D923660125636D032BE8D90A23CC
S113240060E60023636608235CE69D423FF60FAE58
S11324109D4228BF1D460123032D88BF25F00305D7
S1132420CDE900335A462B4608A92046FFF745FC60
S113243041F2030398427FF478AE94F84630082BB7
S113244013D1B7688FB133682A465946606EB847CE
S1132450636E1D446566D9E5402D28BF4025D7E746
S11324604FF0FF320BF805200135032DF8D90A2B64
S113247006D133462A4659462046FFF7D1FCC5E526
S1132480052B18D198F801309F077FF5BFADF3688D
S1132490002B3FF4BBAD626E042A0AD85319062BF5
S11324A007D90CAB9B1A1A68C4F884204FF0FF328A
S11324B01A60F768C7E70C2B7FF4A8AD98F80130D1
S11324C058077FF5A3ADF768002FBCD19EE594F8BB
S11324D04230990607D5D4F88C00FEF707FD8146F3
S11324E000283FF420AE01273FE0002B58D0B9F17B
S11324F0000F55D0D9F81030002B51D02046984702
S1132500DDE90953ED1A94F840302B4498423FF624
S11325108EADD4E91452AD1A402D28BF40259D42FA
S113252028BF1D46CDE900772B460BAA08A92046F3
S1132530FFF7C3FB41F2030398427FF4F6AD94F82E
S113254042309A0611D5B9F1000F3FF4ECADD9F839
S113255008B0BBF1000F3FF4E6AD33462A460BA9A1
S11325602046D84700287FF4E0ADD4E9142194F83C
S11325704230914203F02003B7D3002B3FF48EADD9
S1132580B9F1000F3FF48AADD9F80C30002B3FF4B9
S113259085AD31462046984700283FF47FADC4E519
S11325A00120ADE700230BAACDE9003308A90423D9
S11325B02046FFF782FB41F2030398427FF4B5AD56
S11325C0D4F88820B14B9A4205D0152341F2050076
S11325D084F84630A9E5FEF78BFC10B9012388F88E
S11325E0033098F80330002B3ED094F845309B0715
S11325F007D0F5682DB10422336804F18401104634
S1132600A847236E83B3736873B34FF0FF3336AFB9
S113261047F8C43D04F1800904224946384600F0D5
S113262047F940B1FEF773FC28B1D6E9003504221E
S113263049461044A84704F168050422294638464F
S113264000F036F980B17768FEF75AFC336814223B
S113265004F16C010830B8477768FEF751FC042296
S1132660336829461044B847012388F802300F2301
S113267084F84630DFE4012384F8433022E594F8FB
S11326801831002B7FF477AC626D0193032A10D8C4
S113269001230BAA009308A904232046FFF70DFB8E
S11326A041F2030398427FF440AD0B9BC4F8903091
S11326B061E4432A1AD801230BAA009308A94023F2
S11326C02046FFF7FAFA41F2030398427FF42DAD56
S11326D00BAD04F194021BAF2B4603CBBB4210603D
S11326E051601D4602F10802F6D144E4472A4FF036
S11326F00102009217D804230BAA08A92046FFF769
S1132700DCFA41F2030398427FF40FAD0B9BC4F84B
S1132710D430DAF83820002A3FF4FBAD526C9A42E8
S11327207FF629ACF5E540230BAA08A92046FFF75C
S1132730C4FA41F2030398427FF4F7AC04F1D80CD5
S113274067460BAB1BAD1A4603CAAA42CCF800007D
S1132750CCF8041013460CF1080CF4D12846FDF70C
S11327609FFE482204F190012846FDF7A3FE284667
S1132770FDF7A2FEDAF83830394603F1240200925C
S1132780043304F1F8022846FDF716FE28B1152398
S113279041F2060084F84630C7E4012384F8183176
S11327A090E494F84430002B7FF478ACCDE9003306
S11327B00BAA402308A92046FFF77FFA41F203033E
S11327C098427FF4B2ACE06CFDF776FE94F81831D1
S11327D073B104F1B403009304F19403E06C13AAFD
S11327E00BA9FDF7E9FDC8B1002388F80330CEE753
S11327F0FEF782FB30B1DAF8383003F1240200929C
S11328000433EBE7E56CFEF787FB0746FEF798FB1E
S11328103B46009013AA0BA92846E2E7012388F857
S1132820033084F8443039E441F207007DE4184A67
S113283093423FF4EEAC0ED8164A93427FF4BAACFE
S11328406EE4154A93423FF4E2AC144A93427FF497
S1132850BBAC042336E4124A93423FF4DEAC0AD8FC
S1132860104A93427FF4B0AC94F84330002B7FF4C9
S113287057AC132326E40C4A93423FF4CCAC0B4AE6
S113288093427FF4A1AC09231CE400BFE320BBDE28
S1132890F60808F6F30B0BF3F40A0AF4F50909F544
S11328A0FC0404FCF70A0AF7FD0303FDFE0101FE24
S11328B030B50024A24201D1002007E0035D0134B9
S11328C00D1915F8015CAB42F4D0581B30BD431E02
S11328D00A4410B5914200D110BD11F8014B03F820
S11328E0014FF7E702440346934200D1704703F8CF
S11328F0011BF9E7F8B500BFF8BC08BC9E46704759
S1132900F8B500BFF8BC08BC9E4670470400000739
S113291000000D1013001A2026303840500000002B
S113292007B0CD5E0100000003000A01802B000007
S11329300040000000000C00F0001000E90000005E
S1132940ED00000095190000691B00009B1B0000AE
S11329500000000013B779FAC925DDB7ADF3CFE065
S1132960F1B614B801010000000000007C2B000047
S11329704000000003000A01000000000000000005
S11329800000000000000000000000000000000043
S11329900000000067452301EFCDAB8998BADCFE47
S11329A010325476C3D2E1F00000000000000000B1
S11329B000000000C1059ED8367CD5073070DD17B5
S11329C0F70E5939FFC00B316858151164F98FA7F8
S11329D0BEFA4FA46A09E667BB67AE853C6EF37224
S11329E0A54FF53A510E527F9B05688C1F83D9ABD6
S11329F05BE0CD1980000000000000000000000032
S1132A0000000000000000000000000000000000C2
S1132A1000000000000000000000000000000000B2
S1132A2000000000000000000000000000000000A2
S1132A3000000000F00F1003248005403C0100203A
S1132A401300000009000000000100000202000061
S1132A5013000000F00F1003248005403C02002006
S1132A601300000009000000000200000101000042
S1132A70D3FFFFFF0205000D0A4661696C656420FF
S1132A80746F20626F6F740D0A000D0A4765636BE3
S1132A906F20426F6F746C6F616465722076582E7C
S1132AA0592E410D0A312E2075706C6F61642067B8
S1132AB0626C0D0A322E2072756E0D0A332E20655B
S1132AC0626C20696E666F0D0A424C203E20000D38
S1132AD00A66696C65206572726F72203078000036
S1132AE00000000029190000000000005319000034
S1132AF00D0A53657269616C2075706C6F61642096
S1132B0061626F727465640D0A000D0A536572691F
S1132B10616C2075706C6F616420636F6D706C659F
S1132B2074650D0A000D0A626567696E2075706C24
S1132B306F61640D0A000D0A584D6F64656D206263
S1132B406C6F636B206572726F7220307800B814FA
S1132B50B6F1E0CFF3ADB7DD25C9FA79B7130000BC
S1072B60000000006D
S1132B64F07F1030400300203C800540000000004A
S10B2B746500000041000000AF
S90300A15B
