S01F0000626F6F746C6F616465722D756172742D786D6F64656D5F352E73333776
S1130800007C0020D1080000CD080000AD090000E4
S1130810CD080000CD080000CD080000CD08000080
S1130820CD080000CD080000B83B0000CD08000052
S1130830CD080000EC3B0000CD080000CD0800000E
S113084010B5054C237833B9044B13B10448AFF306
S113085000800123237010BD180100200000000057
S1130860F83E000008B5034B1BB103490348AFF33E
S1130870008008BD000000001C010020F83E0000BC
S11308800E4B0F4A9A60D3F8882042F47002C3F8E2
S113089088200C4B5A6D42F400525A651A6C22F0AF
S11308A003021A64084A136823F00103136052F820
S11308B0143C23F0805342F8143C704700ED00E0F0
S11308C00008000000300E4074300E40FEE70000C7
S11308D008B5FFF7D5FF00F0EFF80A4A0A4B0B49B9
S11308E08B4206D30A4B0B4A0021934206D300F0F5
S11308F061F852F8040F43F8040BF1E743F8041BC2
S1130900F3E700BFF83E00000001002018010020BA
S113091018010020EC03002001F094B801F0E3B8C2
S113092030B51C4B87B001AA03F11005186859684B
S1130930144603C40833AB422246F7D11B78164A47
S11309402370D2F8943003F00703022B1ED01369EE
S1130950C3F30443102B1BD806A90B440F4913F807
S1130960140C0F4B43438B4206D111690122C1F38E
S113097041618A40B3FBF2F3074AD2F80001C0F3A5
S113098004200130B3FBF0F007B030BD054BF3E7B2
S1130990054BF1E7A43B000000400E4000093D0078
S11309A040420F0000F04902C0EA21014FF40170F7
S11309B002F0A4BB394B13B501225A64384BDC6CEA
S11309C001A8240E00F08EFF8E2C1CD83549D1F8D6
S11309D0B00040F00403C1F8B030334B4FF0501274
S11309E01A601A631A66C3F89020C3F8C020C3F8CB
S11309F0F020C1F8B0002B4AD36A23F07F0343F000
S1130A002003D36201E08F2CF5D99DF80530012B2A
S1130A1001BF264A136843F004031360244B0022E9
S1130A201A60FFF779FF02F062FB01F047FC48BB54
S1130A3040F2012002F062FB01F0E8FD01F0E8FD64
S1130A4018B14FF4017002F059FB01F00FFE044697
S1130A5001F09CFF1CB140F203739C4203D140F2AD
S1130A60012002F04BFBA4F20573012B03D940F2E1
S1130A7005439C420ED140F2032002F03FFB0020CC
S1130A8002B010BD0B4B0193019B002BD4DD019BE5
S1130A90013BF8E74FF40170EFE700BF00000E40A0
S1130AA0B081E00F00400E4000A0004064310E40D1
S1130AB0B40AC64300350C0008B51C4B5B685B05E3
S1130AC00FD400F07DFF80F00100C0B244F20403B3
S1130AD01B68013314D14FF40270BDE8084002F0E2
S1130AE0FFBA02F02BFBA0F2022080B20728E8D85C
S1130AF0012303FA00F010F0C90FE2D00020E5E76B
S1130B0090B14FF4804002F05FFA0028E3D0084A25
S1130B104FF4804393601846016881F3088881F399
S1130B20098840688746FEE708BD00BF00500E40B4
S1130B3000ED00E00020704749BA89B24840C0F394
S1130B400311414008B280EA013000B2C3B280EA26
S1130B50431080B2704738B5044645181046AC427D
S1130B6000D138BD014614F8010BFFF7E5FFF6E7A5
S1130B7010B50B4CD4F8B03043F02003C4F8B030B7
S1130B80084B01241C6001449A605C601A46884248
S1130B9001D1D86910BD10F8014B9461F7E700BF8B
S1130BA000400E4000C00140F8B504461D461646FC
S1130BB00F4601F02EF8DDE90612204601F02FF869
S1130BC00023636284F838703268C4F8392072688C
S1130BD0C4F83D202B0CB26884F845302B0AC4F8C5
S1130BE0412084F8463084F84750F8BD30B585B0CC
S1130BF01D4600F12803CDE90112009300F12402FF
S1130C0000F13803294601F028F805B030BD000092
S1130C102DE9F041A2B00F4616469846289C054699
S1130C2060B359B352B34BB344B30121154800F038
S1130C30EBFC4022002102A802F0A0FF414602A8DA
S1130C4000F016FB21460AA812AC00F011FB40226A
S1130C500021204602F092FF3946204600F008FBAE
S1130C6031461AA800F004FB009402AB2022294666
S1130C70054800F00DFB22B0BDE8F08140F20160B0
S1130C80F9E700BF00150A0000000F4010B5044644
S1130C9001F07EFA20460021BDE8104001F0A2BA1E
S1130CA001F0AABA014601F0A9BA1C2350F8042F96
S1130CB00AB9043BFAD1002BCCBF002001207047B5
S1130CC030B50568046802680368C1E90054C1E9E5
S1130CD002230568046802680368C1E90454C1E991
S1130CE0062330BDD1E9022330B5D1E900540560B3
S1130CF0046002600360D1E90454D1E9062305606D
S1130D0004600260036030BD2DE9F04104461D46D5
S1130D100E46904600211C22181D02F02FFF0123CD
S1130D202B6000F0AFFC4146074604F58070FFF7E6
S1130D30D9FF314604F5827004F58476FFF7D2FFBB
S1130D4029463046FFF7CEFF384600F09FFC0D4F92
S1130D500D4B0E4A0E490F4823656369DB010BD521
S1130D6000F090FC294604463046FFF7A9FF2046D0
S1130D70BDE8F04100F08ABC22656165A065E765C5
S1130D80EBE700BF3938010039398401D02484FCF1
S1130D901C82FED88B1C81A02DE9F04F8DB0044637
S1130DA098460F46154600F06DFC04F5827607F16F
S1130DB04002114604F5867B814630460392FFF7D4
S1130DC091FF29465846FFF78DFF04F588731846AE
S1130DD005F120010293FFF785FF484600F056FC19
S1130DE0424921654249616501254249A165E5659C
S1130DF000F048FC04F5847907F1200A0190394693
S1130E003046FFF76FFF51464846FFF76BFF039AE2
S1130E10029B11461846FFF765FF019800F036FC67
S1130E20354B2365354B6365A56500F02BFC04F554
S1130E308073019008F1400118460293FFF740FFC8
S1130E4004A94846FFF73CFF019A104600F01EFC37
S1130E5000F018FC394601905846FFF743FF019A09
S1130E60104600F013FC264A2265264A62656FF498
S1130E702673A2F5FE221A44A265E56500F002FC81
S1130E80514607463046FFF72DFF384600F0FEFB7B
S1130E901D4A22651D4A6265A56500F0F3FB4146C3
S1130EA007464846FFF70CFF384600F0EFFB00F01A
S1130EB0E9FB04A907463046FFF714FF384600F063
S1130EC0E5FB134A2265134A6265A56500F0DAFB67
S1130ED0029B044608F120011846FFF7F1FE204664
S1130EE000F0D4FB0DB0BDE8F08F00BF8AD11C81A7
S1130EF0D91C83D11C81E11CD01482CB1481E11C48
S1130F008CE11C811C84D91CE014D8141482E11CCB
S1130F1084D31482D11CE0142DE9F041044690B02E
S1130F200F46244E0521904600F0B3FB00232360B6
S1130F30236363630FCE08AD0FC596E80F0085E801
S1130F400F0008AA6B4607F140012046FFF7DCFEBC
S1130F5000F098FB04F586750646694604F5827030
S1130F60FFF7C0FE39462846FFF7BCFE07F1200113
S1130F7004F58870FFF7B6FE304600F087FB0E4B91
S1130F8023650E4B63650E4BA3650123E36500F0F7
S1130F9079FB08F12001064604F58070FFF790FE06
S1130FA041462846FFF78CFE304600F06FFB10B038
S1130FB0BDE8F081383C00008AD11C81D91C83D162
S1130FC01C81E11C2DE9F04FA5B01D460446CDE976
S1130FD0001205A81C22002102F0D0FD4FF00108E8
S1130FE020220021284605F12007CDF8108005F1C4
S1130FF0400A02F0C3FD20220021384602F0BEFD63
S113100020220021504602F0B9FD0521204600F0BF
S113101040FB00232360FF2623636363721101985E
S113102006F01F0350F8222008FA03F3134206F1D6
S1131030FF3102D10E460029F0D100F023FB04F564
S113104082733946804618460293FFF74BFE4046AA
S113105000F01CFB7A4B7B4A236562657A4AA265E1
S113106000F010FB04F5807914A980464846FFF788
S113107027FE404600F00AFB00F004FB29468046A8
S11310804846FFF72FFE404600F000FB6F4A704BC6
S113109022654FF486726365A26500F0F3FA04F5E5
S11310A0867883460CA94046FFF70AFE1CA94846E9
S11310B0FFF706FE584600F0E9FA00F0E3FA029B57
S11310C00393514683461846FFF70CFE584600F03A
S11310D0DDFA604B23650123636500F0D3FA04F560
S11310E0847B294602905846FFF7FCFD029A10467D
S11310F000F0CCFA584A226502F1D94202F5DE1218
S113110002F595626265A2F586120123A2F2BA4243
S1131110A265E36500F0B6FA1CA902905846FFF7F1
S1131120E1FD0CA94046FFF7DDFD029A104600F0F0
S1131130ADFA4A4A22654A4A62654A4AA26500F003
S1131140A1FA2946029004F58870FFF7B9FD029AC6
S1131150104600F09BFA00F095FA039B0290394682
S11311601846FFF7BFFD58465146FFF7BBFD14A9CB
S11311704046FFF7B7FD029A104600F087FA3A4B53
S113118023653A4B636500F07DFA51468346484631
S1131190FFF796FD39464046FFF792FD584600F0AA
S11311A075FA012106F01F0301FA03F37211019984
S11311B051F82220134217D02B687BB92846FFF739
S11311C074FD58B12B6A4BB93846FFF76EFD28B150
S11311D02B6C1BB95046FFF768FD60B92B46009A8B
S11311E029462046FFF7D8FD16F1FF36BFF425AF98
S11311F025B0BDE8F08F009BAC4603F1200E1868C3
S11312005968624603C2083373459446F7D1BC4615
S113121003F1200E18685968624603C20833734507
S11312209446F7D10DF1100EBEE80F0005F1400C05
S1131230ACE80F009EE80F008CE80F00D4E700BF75
S11312408AD11C81821CC00C0C0C0100C00C0C83C4
S1131250D91C83D88AD11C83DA0C81148CE11CD06C
S11312601484E31482D11C01D81483D11CC00C0152
S113127010B520220C46002102F080FC04F120026B
S1131280013812F8013D00F8013FA242F9D110BD26
S11312902DE9F04FBBB089460446002190460AA8C8
S11312A060229A46449F02F069FC6022002122A831
S11312B002F064FCB9F1000F00F01E81BAF1000FD6
S11312C000F01A81002F00F01781B8F1000F40F3ED
S11312D0138100232360236363636368884E43F0B0
S11312E0100363600C21204600F0D3F9636823F4F3
S11312F0406343F400636360636823F4407343F41E
S1131300007363600FCE2AAD0FC596E80F0085E821
S11313100F0000F0B7F904F5847683463946304669
S113132004F58675FFF7DEFC2AA92846FFF7DAFCE8
S1131330584600F0ABF90122724B2365626562697D
S1131340D20104D440F202603BB0BDE8F08F391FF3
S1131350082251F8040F002800F0C680019300F021
S113136091F907F1200B009059463046FFF7BAFC7B
S11313702AA92846FFF7B6FC009A104600F086F921
S1131380019B2365012363656369DB01DAD507F1FA
S11313901C02082352F8041F002900F0A980B8F1A8
S11313A0200FA8BF4FF020082022002132A802F00D
S11313B0E5FB08F1FF30CC4620F003033AA94033A3
S11313C00B441CF8012B00F00301C9008A4053F8B8
S11313D0601C0A4343F8602CACEB0903434500F15D
S11313E0FF30E9DB00F04EF932A980463046FFF7C2
S11313F079FC404600F04AF9434B236500F042F97A
S113140004F58078814632A94046FFF759FC4846E6
S113141000F03CF92AAA02AB59462046FFF774FCB7
S113142000F030F904F58879834602A904F5827046
S1131430FFF758FC32A94846FFF754FC39462846C2
S1131440FFF750FC584600F021F9304B236503F1B7
S1131450FA43A3F50063636500F014F932A98346E7
S11314604846FFF72DFC02A94046FFF729FC5846E1
S113147000F00CF90AAB32AA25492046FFF7A2FD79
S113148022AB02AA51462046FFF79CFD0AAA114648
S11314902046FFF741FD22AB19460AAA2046FFF772
S11314A07BFC22AA11462046FFF736FD00F0EAF83D
S11314B00C218046204600F0ECF822A93046FFF7C4
S11314C011FC39462846FFF70DFC404600F0DEF8D3
S11314D0104B2365104B6365636913F0807F40F202
S11314E0046018BF00202FE7013A7FF432AF29E7E8
S11314F0013B7FF44FAF25E740F2016024E700BFD2
S1131500583C00003035DA1030D00C0130E11C8436
S1131510783C00003035DA14393801001FB5124B1D
S11315201A6842F480121A60D3F8C02042F0010213
S1131530C3F8C020FFF7F4F94FF47A23B0FBF3F0BB
S11315400A4B0D2218600021684602F017FB0123A4
S11315508DF8003069460A2305488DF8023000F002
S1131560DBF905B05DF804FB00400E4038010020B3
S1131570008001400C4A0D4B10B5546A1B68A4B29C
S113158013FB00400A4B80B21880A042094B2CBFC9
S1131590002401241C70134611B15A6A8242FCD102
S11315A001225A619A6110BD008001403801002077
S11315B034010020360100200A4B1A780A4B22B16C
S11315C0D86810F0010003D17047DA68D20707D455
S11315D0586A064B1B88984234BF0020012070478C
S11315E001207047360100200080014034010020B2
S11315F0044BD3F84421D20703D4D3F8402110423A
S1131600FBD1704700400E40C0F30322013A38B5C5
S11316100546092A13D8DFE802F02313121205162F
S113162019121C20104C0020C5F3043508B1FFF733
S1131630DFFF04F1047405EBC404A400216038BD89
S113164000200A4CF0E70120094CEDE71020094C7A
S1131650EAE74FF48030084CE6E70020074CE3E764
S11316600020074CE0E700BFB0400E40C0400E40F1
S1131670E0400E40E8400E40F0400E4050410E4025
S113168000400E40EFF3108072B6704700B962B6A6
S113169070470E2910B543680DD801228A4047F2DD
S11316A0E004224223F01F0306D140F61F742242B5
S11316B001D01943416010BD41F01001F9E7000069
S11316C0F0B54AB130261E4C012546438D403444C2
S11316D00BB304F1C06425603024444304F1804416
S11316E0072904F5204419D865688E000F27B740F0
S11316F025EA070502FA06F63543656052B9012268
S113170002FA01F1302250430D4A0244A3B102F11E
S1131710C0621160F0BD04F18064DCE701F1804532
S1131720083DA668AD000F27AF4026EA070602FA77
S113173005F53543A560E1E702F18062E9E700BF02
S11317400CA000400F4A70B5002308258B4201D13C
S1131750002070BD50F8234094610B4CD5600133D8
S1131760D669F60705D514B96FF00200F1E7013C1C
S1131770F6E7002CF8D0D469A407E7D56FF0010090
S1131780E7E700BF00000E4080969800094A0A4B24
S1131790D969C90705D512B96FF002007047013A3B
S11317A0F6E7002AF8D001221861DA60D86940F31C
S11317B0800070478096980000000E4009B1FFF742
S11317C0C1BF084670470000234B2DE9F0470F4680
S11317D041F671311E6C1964996841F0010181462A
S11317E0B6B299604FEA9208BA46002545450ED331
S11317F00020D9F800203B689A420ED04846FFF7F3
S1131800C5FF50B901213846FFF79CFF05E009EBFD
S113181085042046FFF7BAFF48B10F4B9A6822F0BF
S113182001029A600EB100221A64BDE8F087C4F385
S11318300A04C4F50064A408A8EB05039C4228BF6D
S11318401C4621465046FFF7B9FF0028D1D1254454
S11318500AEB840ACAE700BF00000E401E4B41F6A3
S113186071311A6C10B51964996841F001019960DD
S113187001211861D960D9694C0792B209D59968D8
S113188021F0010199600AB100221A644FF0FF307F
S11318901FE00221114CD9601946D869C00700D550
S11318A06CB9C8698B6810F0020023F001038B60E7
S11318B007D00AB100230B646FF0010009E0013C7A
S11318C0EBE724B902B10C646FF0020001E00AB145
S11318D0086410BD1046FCE700000E408096980096
S11318E0FFF772BF0B4A536911699B0003F03C0375
S11318F0C1F381110B438370136903F03F034370F9
S11319009369D26903F0F003C2F303121343037023
S1131910704700BFD0FF0FE02DE9F04F0C780CB9F1
S113192002234360002343624B78CA7891F802B0E3
S11319308D7A91F808A091F8069091F80780002B11
S11319404B7A4FEA024214BF4FF0400E4FF0000EA4
S113195042EA0B62002B14BF8023002342EA0A02EE
S1131960002DCD7A42EA892214BF4FF0200C4FF0AB
S1131970000C42EA0822002D0D7B42EA0E0214BF3D
S1131980102700271343002D0D79497943EA0C03EE
S113199014BF082600263B43002D14BF4FF4005506
S11319A000253343002914BF4FF0805100212B43FD
S11319B00B4303600CB101234360BDE8F08F0000CA
S11319C01C4AD2F8B03013B543F004030021C2F826
S11319D0B030084601230422FFF772FE002300936F
S11319E0009B632B20DD0021012302220846FFF720
S11319F067FE00230193019BB3F5FA7F17DB0E4BBF
S1131A0000221C68114610460123FFF759FE094ABB
S1131A10D2F8B03014F1FF3023F0040318BF0120D2
S1131A20C2F8B03002B010BD009B0133D7E7019B70
S1131A300133DFE700400E40800314420048704742
S1131A40B83C000000207047024BD86900F0010048
S1131A50704700BF00000E4008B5034608469918B9
S1131A60B1F5802F04D8194602F07DF8002008BD96
S1131A7040F20240FBE78318B3F5802F10B50ED96E
S1131A8040F2024010BDC45801340AD104339A42D2
S1131A90F9D801F0A9F90028F2D00020F2E70023D8
S1131AA0F5E740F20340EDE738B5C1F30A03044615
S1131AB0B3B9C0F30A039BB90D18B5F5802F08D844
S1131AC0204604F5006401F088F9A54204D00028FA
S1131AD0F6D140F2024038BD0028FAD00020FAE7DF
S1131AE040F20440F7E70020704730B50568046809
S1131AF002680368880785B011D0CDE90054CDE9A8
S1131B0002236C460B4604AD224603CAAA4218605F
S1131B105960144603F10803F6D105B030BDC1E99C
S1131B200054C1E90223F8E77FB58B07024615D0BC
S1131B300B466D4601F11006186859682C4603C41B
S1131B400833B3422546F7D1009B1360019B136011
S1131B50029B1360039B136004B070BDD1E9005471
S1131B60D1E90203156014601060F4E700F1047316
S1131B70102A30B54FEA43131AD101221A60D1E971
S1131B800054D1E90223C0F81051C0F81041C0F844
S1131B901021C0F81031D1E90454D1E90623C0F86A
S1131BA01051C0F81041C0F81021C0F8103130BDF8
S1131BB000221A60D1E90054D1E90223456244624B
S1131BC042624362F3E7F0B58C0789B006460B46E0
S1131BD015460FD0082A6C4610D101F11007186879
S1131BE05968224603C20833BB421446F7D12A4639
S1131BF069463046FFF7BAFF09B0F0BD01F120078E
S1131C0018685968224603C20833BB421446F7D108
S1131C10EDE718B12422002101F0B0BF704770B580
S1131C200E461546044690B189B12422002101F0E4
S1131C30A5FF802D02D0B5F5807F0BD12046EA08A0
S1131C4040F8045B314601F08EFF002070BD6FF058
S1131C502100FBE76FF02200F8E72DE9F04F814601
S1131C6085B088469B461646F2B11768B9F1000F55
S1131C7000F0B5800F9B002B00F0B180109B002B6F
S1131C8000F0AD80BBF1000F00F0A9800E9B002B8B
S1131C9000F0A580D9F80030802B03D0B3F5807F05
S1131CA040F0A08000240DE01746DFE7A7B10F9BAA
S1131CB00E9A1B5DD25D5340109A0137135507F0FD
S1131CC00F0701344445F1D3002E00F08E803760B5
S1131CD0002005B0BDE8F08F00F08AF84FF44043CF
S1131CE0476003600546FFF7CDFCD9F80030802B30
S1131CF0824614BF1022082209F104012846FFF786
S1131D0062FF05F18403184659460093FFF70CFF60
S1131D105046A8EB040A2AF00F0AFFF7B7FCA244C6
S1131D20032354451AD10F9B03EB040A109B1C4454
S1131D300F9B434401930323019A92452DD1FFF74E
S1131D40A1FC594604460098FFF7CFFE2046FFF752
S1131D509DFC284600F056F84446B3E74822AA60A2
S1131D600522AA602A699107FCD4AB600293FFF7AD
S1131D7089FC0F9B0190191905F1A000FFF7D4FE0F
S1131D80109B05F180001919FFF7AFFE019A104668
S1131D90FFF77CFC1034029BC3E7AFB94822AA606A
S1131DA00522AA602A699207FCD4AB600393FFF76B
S1131DB069FC0E99029005F18000FFF796FE029AE5
S1131DC01046FFF763FC039B0E991AF8012BC95DBB
S1131DD001374A4004F8012B07F00F07ACE76FF016
S1131DE0210076E76FF0220073E7304671E70000C8
S1131DF0024B034801221A60704700BF0416C8430F
S1131E0000000F40054B984206D103F16E7303F5B1
S1131E108B33043300221A60704700BF00000F4068
S1131E202DE9F04F99B007460E4690461D46FFF740
S1131E30DFFF04462FB1022F00F2E5800423036084
S1131E4000E0076000236360E364626822F4406298
S1131E5062602363636356F8232012BA4DF823208B
S1131E600133082BF7D1FFF70DFC009BC4F80431B4
S1131E70019BC4F80431029BC4F80431039BC4F8E9
S1131E800431049BC4F80431059BC4F80431069B57
S1131E90C4F80431079BC4F80431FFF7F7FBDFF8FB
S1131EA074A15A4B2365002608F00309229B9E4225
S1131EB039D1AB0700F08A80FFF7E4FBD4F8006166
S1131EC0D4F80011D4F80021D4F80031CDE9006130
S1131ED0CDE90223D4F80061D4F80011D4F800212C
S1131EE0D4F80031CDE90461CDE906232E46FFF78D
S1131EF0CDFB08AF6B461A4603CABA423060716024
S1131F00134606F10806F6D12046FFF77BFF2B1F88
S1131F101C3553F8042F12BAAB421A60F9D10020D1
S1131F2019B0BDE8F08F08EB861BB9F1000F0FD094
S1131F3008AA0BF1400CDBF80000DBF80410134690
S1131F4003C30BF1080BE3451A46F4D10DF1200B42
S1131F50FFF798FBDBE90131DBF80C20DBF80070BC
S1131F60C4F8A471C4F8A431C4F8A411C4F8A42119
S1131F70DBE90531DBF81C20DBF81070C4F8A47130
S1131F80C4F8A431C4F8A411C4F8A421DBE90931CC
S1131F90DBF82C20DBF82070C4F8A471C4F8A43159
S1131FA0C4F8A411C4F8A421DBE90CC1DBE90E23B5
S1131FB0C4F8A4C1C4F8A411C4F8A421C4F8A43179
S1131FC0FFF764FB0136C4F850A06FE7FFF75AFB34
S1131FD0D4F80061D4F80011D4F80021D4F8003109
S1131FE0C5E90061C5E90223D4F80061D4F8001101
S1131FF0D4F80021D4F80031C5E90461C5E9062309
S1132000FFF744FB80E702488AE700BF888AC801DB
S113201080AFFFFF070D81012DE9F3470228144625
S113202080460E461F46DDE90A924ED81CB90020B0
S113203002B0BDE8F08713683F2B42D8516809B15C
S1132040002F3ED1B8F1010F3DD0224D2249B8F105
S1132050020F18BF0D4603F03F00E318136022BFC0
S113206053680133536090B3C0F1400A544522D3FE
S113207031465246484401F076FD012300934A4616
S11320803B4629464046A4EB0A04FFF7C9FE3F2C11
S113209056440DD93D46A309009332463B46294692
S11320A04046FFF7BDFE24F03F031E4404F03F0406
S11320B0002CBCD0002022463146484401F053FD98
S11320C0B5E73D46C7E7054DC5E70548B0E73F2CF2
S11320D0F1D9E0E72A3D0000EA3C00000A3D000097
S11320E080AFFFFF2DE9F041012886B004460E467B
S11320F090461D4604D045D3022841D022483CE0F6
S11321001C272A68D3008DF80F3053098DF80E3040
S1132110530B8DF80D30530D8DF80C306B68D900CE
S113212001EB52718DF80B1002F03F025909372A66
S11321308DF80A104FEA53314FEA535394BFC2F15A
S11321403802C2F178028DF809108DF808300F4971
S11321503346CDE900852046FFF75EFF08220DEBEC
S113216002013346CDE900852046FFF755FF3A4684
S113217031460C9801F0F7FC002006B0BDE8F08170
S11321802027BEE71427BCE780AFFFFF4A3D0000CD
S113219018B16C22002101F0F1BC704707B590F82A
S11321A068300190002B00F12803009300F108032C
S11321B014BF01200220FFF72FFF03B05DF804FBDA
S11321C007B590F868200091002A034600F1280220
S11321D000F1080114BF01200220FFF783FF03B0C0
S11321E05DF804FB00239942D4BF00210121C0E91A
S11321F0003380F868107047FFF7D0BFFFF7E0BFE7
S1132200002070470020704700207047002070476E
S113221040F628031B68186970472823186870471C
S113222040F62803186870472823044A1B68196875
S113223091420CBF18690020704700BFAD1007B071
S11322400120704710B5E0B04FF4BE7201A9002020
S113225000F022FD40F20124002101A800F05FFCFF
S1132260A042F9D040F20323984203D040F2054043
S113227060B010BD9DF8043003F00302022AF5D0CB
S11322809A0711D540F62802029912689268914281
S11322900AD95C9800F032FD0028E7D0FFF7C4FFAC
S11322A00A9900F0D7FEE1E7DB07DFD504995C98D3
S11322B000F048FD0028D9D00020D9E7FFF7C2BFBD
S11322C0004870474A43E00F004870476A43E00FF4
S11322D0004870478642E00F38B501213448354C38
S11322E0FFF792F901213448FFF78EF901214FF4E9
S11322F08A40FFF789F901213048FFF785F940F654
S1132300AA630025E3602E4A256041F20503656651
S11323106360A5606561E564A2646567A567E567B8
S1132320636023682360FEF7FBFA00F5E1404FF495
S1132330E1134001B0FBF3F0224B203803EAC00064
S11323406061012304220A210220FFF7B9F9012365
S11323501A460B210220FFF7B3F940F60F73A36767
S1132360032205236267E360174B4FF0E0611960B5
S11323704FF440211D62DD625D63DD66C3F88010A9
S11323801249C3F88850C3F88450C3F89810104910
S1132390C3F8B0100F49C3F8B850C3F8B4500A607A
S11323A00122DA6303F1C063083302221A6038BDE4
S11323B0404105000000014000250A0000220400FD
S11323C0F9FF0100F8FF7F0000200E408C3D000063
S11323D001000C0028200E44084B986A10F00200FB
S11323E005D0074A022313609360012070471B6ADB
S11323F09B07FBD4034B02221A60F6E700200E4031
S113240020200E4428200E447F2938B50546144662
S113241024D8FFF7E1FFA8B941F2062038BDE85CF3
S1132420985401338B42FAD10E490888013B63F377
S11324300E100D4B08800222C3F8C810DA6324B9C9
S11324400020EBE70023094AECE7FFF7C5FF00286B
S1132450FBD0074A13699B06FCD5F1E741F2031050
S1132460DCE700BF0001002000200E4040030020F4
S11324700000014008B50146FFF7AEFF0028FBD07D
S1132480054B1A4618694006FCD5596313699B0627
S1132490FCD5002008BD00BF000001400E4BD3F85E
S11324A0940040F2011398420FD040F20223984264
S11324B00DD00A4BC01A0A4B1B6883420AD02ABFAC
S11324C0C3F50073C01AC01870470020F3E74FF437
S11324D08070F0E70020704700200E403C0100208F
S11324E03C0300202DE9F843089F04460D46164698
S11324F0FBB9FFF7D3FF2149DFF888E00B68204FD1
S1132500A84228BF2846224604EB000C4FF00108DD
S113251000244FF0020962451DD104B10B6006B1DD
S1132520306041F20423A84234BF18460020BDE8BD
S1132530F8832FB1FEF7F2FF00213846FFF71AF8AF
S1132540FFF7ACFFA842D4D2002FF9D0FFF734F83C
S11325500028F5D0CDE71EF8034002F8014B013303
S1132560B3F5007F04D1C7F8009000230124D2E71B
S1132570B3F5807F08BFC7F80080F7E73C0300206D
S113258008200E463C01002007B5012300910022DB
S11325901946FFF7A7FF03B05DF804FB10B10A4B1F
S11325A002221A6071B1084A08490123136093603A
S11325B0074AC2F89810074900200860D363064B05
S11325C002221A600020704720200E448C3D000037
S11325D000200E403C03002008200E4607B54FF4AF
S11325E07A710DF10700FFF7CFFF50B99DF807305E
S11325F0313BDBB2022B01D8034AD05C03B05DF857
S113260004FB0120FAE700BFCC3D0000FFF764BEE5
S113261010B540F6280392B01B6813499C68452204
S1132620684601F0A0FAC4F30363092B8CBF373367
S113263030338DF81430C4F30343092B04F00F0432
S11326408CBF37333033092C8CBF373430340122FC
S1132650452168468DF816308DF81840FFF7D4FEF2
S1132660002012B010BD00BFE23D00002DE9F0478C
S1132670F8B000248DF80F40FEF750FFB64EDFF897
S1132680F082DFF8F0923C270125062DFDD8DFE823
S113269015F009000D001200330053004C01C10075
S11326A00425F2E7FFF7B4FF0125EEE7FFF796FFF5
S11326B03C270546E9E701221121A848FFF7A4FEBB
S11326C0202317AA05A954A800F074FE282200218B
S11326D0A14801F053FAFF23012105207370FEF78E
S11326E049FFFFF7DBFE18B101210020FFF756FF79
S11326F000F04EF90325C8E74320FFF7BBFE002195
S11327004FF47A70FEF736FFFFF7C8FE18B9FEF7EC
S113271053FF0028F8D0FFF7C1FE0028C0D1013FC5
S1132720B3D11820FFF7A6FE1820FFF7A3FE182048
S1132730FFF7A0FE0025A8E7002185220DF1C900BE
S113274001F01CFA002140F6B830FEF713FFFFF742
S1132750A5FE78B34FF47A7300930123194604AAB3
S11327600DF1C900FFF7BEFE9DF8C930012B0DD154
S113277040F6B8320092842104AA0DF1CA00FFF792
S1132780B1FE049B842B044618D1C8B90DF10F0186
S11327900DF1C90000F006F940F60713984204460B
S11327A014D1B3780BB1F37813B918238DF80F3023
S11327B006251DE0FEF700FF0028C8D040F204748F
S11327C015208DF80F00FFF755FE5EE780B99DF8E0
S11327D0C930012B0CD1624B009333AA80233146BC
S11327E054A800F021FE044610B118238DF80F30D0
S11327F09DF80FA0BAF1180F504608BF0625FFF741
S113280039FEBAF1180F7FF440AF5046FFF732FE9D
S11328105046D8E701210020FFF7C0FE01210A201D
S1132820FEF7A8FE9DF80F30062B4FF0010208D1E9
S113283040F607139C4204D14A481B21FFF7E4FDEC
S113284078E71A214846FFF7DFFDA4F51063B3F5D6
S1132850E06F39BF18214448444810210122FFF792
S1132860D3FD41F201039C4249D02FDC40F603130F
S11328709C4246D01FDC40F601139C4247D040F6F0
S113288002139C4245D09DF80F00000909288CBF13
S113289037303030FFF7EEFD9DF80F0000F00F00E9
S11328A009288CBF37303030FFF7E4FD0D20FFF7E7
S11328B0E1FD0A203CE740F605139C422BD024DBC3
S11328C040F606139C42DED127231BE041F20703A6
S11328D09C4214D00ADC41F205039C421FD022DC46
S11328E041F204039C42CED150230BE041F2090390
S11328F09C4212D015DB41F20A039C42C3D14F2300
S113290000E021238DF80F30BDE72223FAE72323CB
S1132910F8E72423F6E72523F4E74123F2E74323EA
S1132920F0E74423EEE74523ECE7B3784BB3F378C1
S11329303BB333789B071FD540F6280372681B68A6
S11329409B689A4204D9FFF76FFC716A00F082FB1E
S113295001221321404671E7C00300207D3E0000A0
S1132960383E0000623E00008E3E0000273E00001C
S1132970CF3D0000483E000040F2012000F0BEFBC5
S1132980E6E740F2032000F0B9FBD3E6704700000D
S1132990024A00231370024A13707047E8030020B0
S11329A0E903002038B50378042B05460C4650D0C3
S11329B008D8012B0AD0032B50D11823237040F6DA
S11329C008100DE0182BF8D0432BF5E7264B42787E
S11329D01978D9B9012A04D01523237040F60410BC
S11329E038BD1A70AB781A44FF2AF5D10022802131
S11329F0E81CFEF7B0F895F88320C0F30F239A4241
S1132A0016D01523237040F60210E9E7174B1B7804
S1132A10934204D10623237040F60610E0E7013305
S1132A20DBB29342DED01523237040F60510D7E7BE
S1132A3095F88430C0B2834204D01523237040F645
S1132A400110CDE7094B6A781A7006232370002021
S1132A50C6E706230B7040F60710C1E7182323705E
S1132A6040F60310BCE700BFE9030020E8030020A0
S1132A7031B10A4B5A68824205D80023C1E90033B8
S1132A8040F201407047013053F830200A6003EBF4
S1132A90C00300205B684B60704700BFD43C00005B
S1132AA001221A707047000070B40D4C0E46114696
S1132AB0626882420DD9013004EBC002F5185268F5
S1132AC095420AD854F830001A46304470BCFEF7D8
S1132AD0C3BF40F2014070BC704740F20240FAE7C5
S1132AE0D43C000030B5A3B004460D4602AAD0F889
S1132AF07411D0F86C018023FFF7D6FF0095802372
S1132B0002AA214604F1280000F08EFCD4F87431A6
S1132B10C4F878018033C4F8743123B030BD1FB5D4
S1132B200023CDE90033CDE90213D0F8783104460F
S1132B30A3B9D0F87421D0F870319A420ED2694604
S1132B40FFF7D0FFD4F8780198B141F2070240F2C0
S1132B500123904208BF184604B010BDA3785BB1AE
S1132B60E27840F2022040F20323002A18BF1846FC
S1132B70F2E740F20120EFE740F20220ECE7000028
S1132B8070B586B006AB0D46002103F8111D029303
S1132B901E4B11600446164628461C22CDE9033319
S1132BA0059300F0EBFF9DF8072062B994F86E30AE
S1132BB0112B08D0D4F878312BB9D4F87411D4F887
S1132BC0703199421AD32378990744BF63683360FC
S1132BD02378DB0709D504F1080304F1240153F831
S1132BE0040B45F8040B8B42F9D162B92378002B0E
S1132BF040F2064018BF002006B070BD02A920466E
S1132C00FFF770FFCFE70020F6E700BFA12A00001E
S1132C1070B40D4C0E461146626882420DD90130E3
S1132C2004EBC002F518526895420AD854F83000F3
S1132C301A46304470BCFEF71EBF40F2014070BC1F
S1132C40704740F20240FAE7D43C0000074B5A6850
S1132C50824207D9013003EBC00253F830005168B7
S1132C60FEF722BF40F20140704700BFD43C000091
S1132C7010B5044660B14FF480320023C0E900234C
S1132C80044B1A785B680272C360FEF7D7FE2061BA
S1132C9010BD00BFD43C000037B50C4605461146B4
S1132CA0204600F0E7F948B969462846FFF7E0FEF8
S1132CB020B9019BC4F86C51C4F8703103B030BD25
S1132CC038B500F5807204460D46202300F1B801A2
S1132CD0283000F06FFBD4F878312BB9D4F8742184
S1132CE0D4F870319A4203D3A07800B1E07838BDAB
S1132CF029462046FFF7F6FEEDE7000030B5E5B0C3
S1132D000D460446FFF78CFA8368AB4202D30020D9
S1132D1065B030BD4FF4BE7205A92046FFF7BCFF75
S1132D200028F4D102238DF81530CDE90100039079
S1132D30034B049301A905A8FFF7C2FFE8E700BF0E
S1132D40752F000000B5E5B04FF4BE7205A9FFF77A
S1132D50A3FF70B901238DF81530074B0190CDE91D
S1132D600230049001A905A8FFF7AAFF65B05DF839
S1132D7004FB0020FAE700BF492F00000023036092
S1132D804FF0FF3201238B4201D30020704740F8FB
S1132D9023200133F7E703680133012B40F2045089
S1132DA098BF0020704740F20250704707B50346B1
S1132DB09B0753BF6FEA01414FF6FF7343EA01419A
S1132DC06FEA11410422019120F003000DEB02018E
S1132DD0FEF786FD03B05DF804FB08B5FEF73EFD83
S1132DE0B0FA80F0400908BDF8B540EA0203144681
S1132DF0DA0705460E4601D50020F8BD0CB90120BE
S1132E00FBE7830721D50988FFF7D0FF0028F3D11A
S1132E10023C032C05F1020506F102060BD924F04D
S1132E2003073A4631462846FEF75AFD0028E3D107
S1132E303E443D44E41B002CE1D031882846FFF792
S1132E40B5FFB0FA80F04009D7E7032CE7D8F4E7E0
S1132E50F0B50F4B85B06C46024603F110072646C9
S1132E6018685968254603C50833BB422C46F7D178
S1132E7004AB501E13F8011D10F8012F914204D128
S1132E80B342F7D1012005B0F0BD0020FBE700BF3D
S1132E90E83E0000C0F30A032DE9F04105460F4661
S1132EA016460BB9FFF799FF05F5006424F4FF6497
S1132EB024F0070405EB0608A04506D83246394637
S1132EC02846BDE8F041FFF78FBF2046FFF785FF96
S1132ED004F50064F0E770B59EB0446B0546FFF757
S1132EE09FF906462046FFF7B3FF48B3237C012B26
S1132EF028D86369012B25D1A4693369A34221D859
S1132F00A5421FD8B4F5802F1CD803A8FDF7BEFE38
S1132F10621B294603A8FDF7C3FE03A8FDF7C2FE02
S1132F20FFF7CEF90546FFF7CFF92B46009004F1E1
S1132F302002214603A8FDF76BFEB0FA80F0400999
S1132F401EB070BD0020FBE770B504460E46154662
S1132F50FFF766F90369A3420AD8426963199A42E2
S1132F6006D32A4631462046BDE87040FFF792BF9B
S1132F7070BD00002DE9F041154607468846FFF76D
S1132F804CF9104B02689A4219D1FFF749F90646E9
S1132F90FFF74AF9C4196319B3F5802F0FD83FB965
S1132FA0FFF742F97369834202D93069FFF715FFCD
S1132FB02A4641462046BDE8F041FFF76BBFBDE815
S1132FC0F08100BFAD1007B0F8B5D0E9006706F195
S1132FD060460446456BFFF723F9B6F5F84F01D96F
S1132FE00020F8BD0369BB42FAD8B7F5802FF7D8A3
S1132FF04033AB4202D8B5F5802F05D9FDF79AFDD1
S113300080F00100C0B2ECE7FDF794FD20B120464A
S1133010BDE8F840FFF75FBF2846FFF719FFA8B1E6
S11330202B7C012BDCD86B69002BDAD0022BEED180
S1133030AB69C4F1040119444FF0FF322046FDF797
S113304097FD034BC31A58425841CAE70120C8E709
S1133050E320BBDE08B54FF0FF32FDF789FD044BDA
S1133060984203D140F2092000F048F8002008BD3E
S1133070E320BBDEB1F5BE7F10B5044610D34FF498
S1133080BE72002100F07AFD0023637004F58072A3
S113309004F1B80104F12800BDE8104000F08AB939
S11330A040F2052010BD13B50446009101462830B6
S11330B000F0BAF9C4F8780118B141F20703984254
S11330C009D1A3784BB1E27840F2032040F2022305
S11330D0002A08BF184602B010BD40F20120FAE7EA
S11330E04FF000534FF20F0218805A8070474FF090
S11330F000534CF23C325A80704700004FF00053AA
S11331004FF20F025A800A4A1880136823F4E063CE
S113311043F400731360BFF34F8F0649064BCA682C
S113312002F4E0621343CB60BFF34F8F00BFFDE7AF
S113313000500E4000ED00E00400FA054FF000538B
S11331404FF20F015A888A4201D1188870473AB960
S11331501B88012B40F2022018BF4FF40070704707
S11331604FF40070704770B5D1E90152AA4205D2FC
S113317090F840302B449B1A402B10D9002012E0C9
S11331800A6890F84040D65C90F84120224402F04E
S11331903F020133013486548B6080F840408B68D1
S11331A09D42EDD8012070BD2DE9F8431746D1E9C1
S11331B00125521B90F840509DF820909DF82480E2
S11331C02A44934204460E4657D9FFF7CCFF002801
S11331D05DD1122384F8463041F20200BDE8F88341
S11331E094F84120A25C7A5594F84120013202F00F
S11331F03F0284F8412094F84020013A84F84020AA
S1133200013594F8402012B1AB42E9D11D46D6E90C
S113321001128A4201D2AB4231D8AB42D9D1D4F89F
S1133220882029463846FDF7A3FCC4F88800B9F184
S1133230000F04D02A463946E06CFDF731FDB8F1A1
S1133240000F08D094F843302BB12B463A46394648
S1133250A06CFDF7CBFC94F8433043B1E36DA26D51
S11332602B449342E36524BF002384F84330636D09
S11332701D44656541F20300B0E70025C1E73168EC
S11332808A5C7A55B2680132B2600135BFE700202A
S1133290A4E700007FB50023CDE9003308231546D9
S11332A00DEB03020446FFF77FFF41F2030398424C
S11332B0064626D194F8433063B108220DEB02018F
S11332C0E06CFDF7EDFC08230DEB03021146A06C46
S11332D0FDF78CFC039A6A6094F84320029B2B60F0
S11332E05AB9094A934208D0084A934205D00822A1
S11332F00DEB0201E06CFDF7D3FC6B682365002342
S11333006365304604B070BDF70A0AF7FC0404FC98
S11333102DE9F843044658680D4616461F46002812
S113332043D08B0743D1FEF773FF216E00F1040CE9
S113333006EB0109CC451DD800F11C02914219D2BB
S11333408C45634638BF0B46591AA3EB0C009145D4
S113335094BFC3EB0909C3EB020905EB010868300C
S11333604A464146204400F0FEFB4A46FF214046BF
S113337000F004FCFEF758FF226E031D93420AD3AB
S1133380B1180830814206D39B1AEA58C4F8802049
S11333904FF0FF32EA50D7E900383246206E294612
S11333A0C047236E1E4426660020BDE8F88341F220
S11333B00200FAE7F8B504464FF0FF36154603F06D
S11333C02003002280F84620A0F8402080F8432003
S11333D080F8452080F84420C0E918220F4680F880
S11333E04230C0F888601822FF21683000F0C6FB24
S11333F0C4F88060C4F88460C4E91275FEF706FF5F
S113340018B117B941F20B00F8BDFEF7FDFE30B15B
S1133410002DF7D0E06CFDF739FC0020F4E7002D17
S1133420F8D12846F0E700002DE9F04F9BB0CDE934
S113343007230393249EDFF800B40023044689463F
S113344009939846099A039B9A4257D294F84630B6
S1133450122BF8D8DFE813F05B00700054009A00D8
S1133460B8013B003200D5013B00CF013B00CF0146
S1133470B402520313001D0321034902520300271F
S1133480636D0F2B41D801251023019700950AAADB
S113349007A92046FFF788FE41F2030398427AD138
S11334A0D4F848A0FEF714FF8023CDE900030BAA4B
S11334B02B4602215046FDF777FBE1E70125D4E9CD
S11334C014329A42C0F01B8184F84650BAE70DF1D9
S11334D0280AD4E91452AA42099916D2089BAD1AB3
S11334E094F840205B1A032D134440F2A781032B68
S11334F000F2CB8107A92046FFF735FE00204AE001
S11335000025636D072B40F2C380012311E005AA57
S113351007A92046FFF7BEFE41F2030398423AD1C1
S1133520069B236500236365059AB84B9A422DD107
S1133530022384F8463085E705AA07A92046FFF749
S1133540A9FE41F20303984225D194F84420059B37
S113355022B1AF4A934219D10C23EAE794F84220EE
S1133560D1074FD594F84320002A40F0CA82A94AD3
S1133570934241D017D8A84A934207D00ED8A34A01
S1133580934203D002F1B642934215D1122384F838
S1133590463041F201001BB0BDE8F08F9F4A9342D0
S11335A0F4D09F4AF0E79F4A93421BD00CD85B4566
S11335B043D09D4A934217D0122384F8463005A87D
S11335C0FEF71EFED8B1E4E7984A9342DED0984A4B
S11335D09342DBD08E4A9342EED1FEF715FE0028CB
S11335E0BAD0D3E70E23A4E70F2384F84630236D23
S11335F0A3650023E36525E7122384F8463041F2EE
S11336000800C8E75B4514D000F27F82834A9342E6
S113361007D0834A934206D07F4A93420FD10623B0
S113362087E7042385E7072383E7092381E70B233F
S11336307FE794F84330002BA8D1102379E705A83D
S1133640FEF7DEFDD0B11123059884F84630C4F8A6
S11336508C00FEF7D7FD94F842309A0680467FF539
S1133660F1AE00283FF4EEAE4368002B3FF4EAAE1F
S11336702046984700283FF4E5AE8AE7122384F8F1
S1133680463094F84330002BB9D041F2040082E76D
S113369001230093019508230AAA07A92046FFF7EE
S11336A083FD41F2030398427FF475AF0A9B03F054
S11336B07F43B3F1407F05D0122384F8463041F2B2
S11336C0090068E70B9B0493DB070ED594F842309E
S11336D043F0010384F84230FEF796FD00283FF4DE
S11336E010AF049BDF0504D50BE7FEF78FFD002820
S11336F0F2D0122384F8463041F20A004BE7CDE9B8
S113370000550AAA07A92046FFF74EFD41F203031C
S113371098427FF440AF09F1080C0AAF63460DF1FB
S1133720400E3A4603CA724518605960174603F1C1
S11337300803F6D11068186099F8003043F00103CB
S113374089F800306046FEF77BFD00287FF4B7AEB1
S1133750122384F8463041F20C001CE70123CDE922
S113376000330AAA082307A92046FFF71DFD41F2EA
S1133770030398427FF40FAF99F8003043F002033B
S113378089F800300A9BC9F80430236D083BC9F856
S113379024300B9B0493FEF740FD264A03689342B2
S11337A07FF4F7AEFEF739FD049BC2689A427FF4BA
S11337B0EDAE052384F8463094F8453043F0010318
S11337C084F8453000236366636D072BC6D939E658
S11337D00423CDE900550AAA07A92046FFF7E4FC13
S11337E041F2030398427FF4D6AE226D0A9B049300
S11337F0042A01D923660125636D032BE8D90A2322
S113380097E600236366082393E600BFEB17A6033D
S1133810FC0404FCF70909F7F40A0AF4F50909F5AC
S1133820F60808F6FA0606FAF90707F9FD0303FD98
S1133830FE0101FEAD1007B0F70A0AF79D423FF6FC
S113384059AE9D4228BF1D46032D88BF25F00305B0
S11338500123CDE9003352462B4607A92046FFF742
S1133860A3FC41F2030398427FF495AE94F84630EA
S1133870082B13D1B7688FB13368606E2A4651465E
S1133880B847636E1D44656623E6402D28BF402576
S1133890D7E74FF0FF320AF805200135032DF8D998
S11338A00A2B06D133462A4651462046FFF730FDFF
S11338B00FE6052B7FF40DAE99F8013098077FF5DC
S11338C008AEF368002B3FF404AE626E042A0AD8F3
S11338D05319062B07D90BAB9B1A1A68C4F884201A
S11338E04FF0FF321A60F768C6E794F84230990641
S11338F007D5D4F88C00FEF785FC804600283FF4F9
S113390048AE01273FE0002B58D0B8F1000F55D046
S1133910D8F81030002B51D020469847DDE90853E1
S1133920ED1A94F840302B4498423FF6E3ADD4E9C5
S11339301452AD1A402D28BF40259D4228BF1D4674
S11339402B46CDE900770AAA07A92046FFF72CFCED
S113395041F2030398427FF41EAE94F842309A0673
S113396011D5B8F1000F3FF414AED8F808A0BAF19D
S1133970000F3FF40EAE33462A460AA92046D0472C
S113398000287FF408AED4E9142194F8423091421F
S113399003F02003B7D3002B3FF4B7ADB8F1000F09
S11339A03FF4B3ADD8F80C30002B3FF4AEAD314644
S11339B02046984700283FF4A8ADECE50120ADE788
S11339C00023CDE900330AAA042307A92046FFF700
S11339D0EBFB41F2030398427FF4DDADD4F8882079
S11339E0554B9A4205D0122384F8463041F2050023
S11339F0D1E5FEF709FC10B9012389F8033099F8E1
S1133A000330002B3ED094F845309B0707D0F5686F
S1133A102DB10422336804F184011046A847236EB3
S1133A2083B3736873B31AAF4FF0FF3347F8583D4D
S1133A3004F1800804224146384600F085F840B17C
S1133A40FEF7F2FB28B10422D6E9003541461044C2
S1133A50A84704F1680504222946384600F074F8A2
S1133A6080B17768FEF7D4FB3368142204F16C014B
S1133A700830B8477768FEF7CBFB04223368294641
S1133A801044B847012389F802300D2384F84630E6
S1133A9034E5012384F843304BE594F84450002D79
S1133AA07FF433AD4023CDE900550AAA07A9204687
S1133AB0FFF77AFB41F2030398427FF46CADE06CAC
S1133AC0FDF7F0F8E76CFEF7FBFB8246FEF7FCFB24
S1133AD05346009012AA0AA93846FDF799F838B15E
S1133AE0122389F8035041F2060084F8463052E567
S1133AF0012389F8033084F8443006E541F20700D5
S1133B0049E55B457FF480AD40E50C4A93423FF4C0
S1133B108EAD0B4A93423FF488AD0A4A93427FF438
S1133B208EADFEF771FB00287FF430AD94F843307E
S1133B30002B3FF411AD29E5E320BBDEFD0303FDBB
S1133B40FE0101FEFC0404FC30B50024A24201D1B4
S1133B50002007E0035D01340D1915F8015CAB4248
S1133B60F4D0581B30BD10B5431E0A44914200D115
S1133B7010BD11F8014B03F8014FF7E70244034667
S1133B80934200D1704703F8011BF9E7F8B500BF71
S1133B90F8BC08BC9E467047F8B500BFF8BC08BC2A
S1133BA09E4670470400000700000D1013001A2001
S1133BB0263038404800000007B0CD5E0100000008
S1133BC003000A0118370000004000000000040050
S1133BD0F0001100190900001D090000C92F0000A0
S1133BE075300000A7300000A83E000013B779FA32
S1133BF0C925DDB7ADF3CFE0F1B614B8010100007B
S1133C0000000000143700004000000003000A0117
S1133C1000000000000000000000000000000000A0
S1133C200000000000000000000000002000000070
S1133C3000010000050C0000FFFFFFFFFFFFFFFF76
S1133C40FFFFFFFF00000000000000000000000074
S1133C5001000000FFFFFFFF512563FCC2CAB9F356
S1133C60849E17A7ADFAE6BCFFFFFFFFFFFFFFFF2F
S1133C7000000000FFFFFFFF96C298D84539A1F469
S1133C80A033EB2D817D0377F240A463E5E6BCF815
S1133C9047422CE1F2D1176BF551BF376840B6CBE0
S1133CA0CE5E316B5733CE2B169E0F7C4AEBE78EDC
S1133CB09B7F1AFEE242E34F01020300280000004A
S1133CC0280000000008000000000400E43C00009C
S1133CD002000000010000000100000000000000DC
S1133CE00000040045465233320067452301EFCDFE
S1133CF0AB8998BADCFE10325476C3D2E1F00000EE
S1133D0000000000000000000000C1059ED8367CC1
S1133D10D5073070DD17F70E5939FFC00B316858DD
S1133D20151164F98FA7BEFA4FA46A09E667BB6749
S1133D30AE853C6EF372A54FF53A510E527F9B054A
S1133D40688C1F83D9AB5BE0CD19800000000000B4
S1133D50000000000000000000000000000000005F
S1133D60000000000000000000000000000000004F
S1133D70000000000000000000000000000000003F
S1133D80000000000000000000000000F00F10031D
S1133D901C0001403C010020130000000900000049
S1133DA0000100000202000013000000F00F1003E5
S1133DB01C0001403C020020130000000900000028
S1133DC00002000001010000D3FFFFFF0205000D07
S1133DD00A4661696C656420746F20626F6F740DAC
S1133DE00A000D0A4765636B6F20426F6F746C6F36
S1133DF0616465722076582E592E410D0A312E20A9
S1133E0075706C6F61642067626C0D0A322E2072CB
S1133E10756E0D0A332E2065626C20696E666F0D17
S1133E200A424C203E20000D0A66696C65206572CA
S1133E30726F72203078000000000000492F0000EB
S1133E4000000000752F00000D0A53657269616C53
S1133E502075706C6F61642061626F727465640DAB
S1133E600A000D0A53657269616C2075706C6F618C
S1133E706420636F6D706C6574650D0A000D0A62D1
S1133E806567696E2075706C6F61640D0A000D0AB8
S1133E90584D6F64656D20626C6F636B2065727240
S1133EA06F7220307800000000010000712C0000C7
S1133EB0712A0000A92A0000112C00004D2C0000DA
S1133EC0972D00007D2D0000A72D0000992C0000E7
S1133ED01F2B0000812B0000491A0000591A000012
S1133EE0771A0000A91A0000B814B6F1E0CFF3ADB8
S10F3EF0B7DD25C9FA79B7130000000003
S1133EFCF07F10304003002034000140000000002B
S10B3F0C6508000041080000F3
S90308D123
